:100000000C945A000C94AA0A0C9477000C94770074
:100010000C9477000C9477000C94960B0C9477005A
:100020000C9477000C9477000C9477000C94D10A10
:100030000C9477000C94A00A0C9477000C94770031
:100040000C9477000C9477000C9477000C94841037
:100050000C9477000086227E6DD24620290B2170F9
:10006000104080523F065B4F666D7D077F6F090D24
:10007000614843D35F777C395E79713D76301E7578
:100080003815373F736B336D783E3E2A766E5B3999
:10009000640F2308025F7C585E7B716F74100C75CF
:1000A0003014545C7367506D781C1C14766E5B467C
:1000B0003070010011241FBECFE5D4E0DEBFCDBFFC
:1000C00010E0A0E6B0E0E0E9F9E202C005900D9290
:1000D000AC37B107D9F721E0ACE7B0E001C01D9221
:1000E000A637B207E1F70E947B120C94C6140C9459
:1000F000000008950E945F030E9432040E94AB0436
:100100000E94CC010C94C20008950E9409020E9432
:10011000AE040E94B3030E9467030C94CD00CF93FA
:10012000DF9300D000D01F92CDB7DEB749835A834A
:100130006B837C838D8385E0FE013196ACE7B0E074
:1001400001900D928A95E1F70F900F900F900F900C
:100150000F90DF91CF91089590918300992319F02A
:1001600091E090938400109282001092810080931D
:1001700083000C94400481E090918300933009F057
:1001800080E0089510928300109281001092820006
:1001900081E0809384000C9440040F93CF930E94DD
:1001A000EB0E81111BC00E943D0481114EC00E94C4
:1001B000721081114AC081E0809384000E9406027F
:1001C000C82F0E94EB0E6C2F70E001E028EE33E0A8
:1001D00048EE53E090E00E94820337C0C091830054
:1001E000C23009F453C038F4CC23D9F0C13081F1C6
:1001F000109283002AC0C33009F47BC0C430C1F719
:100200008091810081118EC081E080938100609196
:100210007E0070917F0002E02AEF30E044EF51E071
:1002200026C080918400882381F06DE2809158017E
:10023000909159010E9496076DE280915A01909128
:100240005B010E94960710928400CF910F91089550
:1002500080918100811110C0C093810060917E0067
:1002600070917F0001E028EB3BE048EB5BE0809180
:100270007C0090917D00AFCF0E943D048111E5CFBD
:100280001092810081E080938200DFCF8091810015
:100290008130C9F028F0823079F310928100D5CFF7
:1002A00060917E0070917F0002E02DE330E04AE72C
:1002B00050E080917C0090917D000E94820381E05B
:1002C00080938100C2CF0E943D048111BECF609116
:1002D0007E0070917F0001E025E830E045E850E0C5
:1002E00080917C0090917D000E948203C0938100E8
:1002F000ACCF0E943D048111A8CF0E94C80181119A
:100300000BC00E940602C82F0E94EB0E6C2F70E0FB
:1003100004E124EF31E05CCF0E94EB0EC82F0E9475
:100320000602F4CF0E943D0481118FCF109281000C
:10033000809180008093830088CF1F93CF93DF93B9
:10034000EC011FB7F894BC016D5F7F4F44E08CE572
:1003500091E00E940F12BE01675F7F4F46E080E68A
:1003600091E00E940F1286E0809396001FBFDF91FC
:10037000CF911F910895CF93CFB7F89480939700B2
:100380000E94710F83E080939600CFBFCF910895B4
:10039000809185008170089540E064E084E790E0FA
:1003A0000E94F004909359018093580140E063E06B
:1003B0008EE690E00E94F00490935B0180935A01D6
:1003C00081E080939700109296004AE060E08CE50F
:1003D00091E00C941B12CF93CFB7F89441E1BC018C
:1003E00085E890E00E940F12CFBFCF91089581E081
:1003F00040915C0150915D0160915E0170915F01DF
:10040000452B462B472B09F480E0089580919700F7
:100410000895CF930E94721081111AC0E091960046
:10042000E83008F095C0F0E0E85EFD4F0C94B6129D
:1004300020022A0228023702400247024D025502DA
:1004400061E090E080E00E94501081E0809396008F
:10045000CF91089587E990E00E94791080919700EC
:1004600018161CF081E08093970084E0EFCF47E9F5
:1004700050E061E090E080E00E94301082E0E6CF42
:100480006AE081E090E00E94501085E0DFCF8CE5CB
:1004900091E00E94791087E0D9CF4CE551E06AE005
:1004A00081E090E00E943010F6CF80915C01909145
:1004B0005D01A0915E01B0915F010097A105B105BA
:1004C00051F541E06AE670E0809158019091590140
:1004D0000E94FE0541E06AE670E080915A01909129
:1004E0005B010E94FE05CFB7F894809197000E94AF
:1004F000710F8DE991E00E946C0F40915C01509169
:100500005D0160915E0170915F01809164010E94C4
:100510006A0BCFBFB3CF8F3F9F4FAF4FBF4F19F77E
:100520008FB7F894109264011092650110926001E7
:1005300010926101109263011092620110925C01AD
:1005400010925D0110925E0110925F018FBFB9CFD2
:10055000109296007DCF2FEF280FE22FE695E695BB
:10056000E695F0E0EB57FF4F9181892F90E02770DF
:1005700002C0959587952A95E2F781700895FF92BC
:100580000F931F93CF93DF9300D000D01F92CDB76E
:10059000DEB7F82E89010E94F701882391F0F80157
:1005A00080818630D1F40E94E80E8F1116C0F801C8
:1005B0008181811126C081E08093980083E00E94B0
:1005C000AC0081E00F900F900F900F900F90DF9193
:1005D000CF911F910F91FF900895F80180818B308A
:1005E00091F40E94E80EF8120EC0F801F1800E940A
:1005F0000602F81631F0F80181810E94BB010E94C9
:10060000D80480E0DCCFF80180818D3079F4F1806E
:100610000E940602F812D5CF0E94DB0482E080938C
:100620009800C80102960E94EB01EBCF833011F5D0
:1006300081810E94AB02882321F20E94BB008111BC
:10064000C0CFF80182818D8344E0B8016D5F7F4F98
:10065000CE0101960E940F1249815A816B817C81E3
:100660008D810E948F00F8018781811109C08D81E1
:100670000E94AC00F8018081883009F0A2CFC1CF80
:1006800084E0F6CF1F93CF93DF93E9010E94F70137
:10069000882381F088818C3069F419810E940602D8
:1006A000181308C00E94820BCE0102960E94EB0133
:1006B0000E94DB0481E0DF91CF911F91089582E4D5
:1006C00093E00E94F30E8FEB92E00C94EE0E80917B
:1006D0009800813041F058F0823051F0833069F059
:1006E0001092980004C00E946B048111F9CF089504
:1006F0000E948C048111F4CF08950E94820B811115
:10070000EFCF0895EF92FF920F93CF93DF93EC0119
:100710007B013093A4002093A300421B530B509302
:10072000A6004093A5000093A20081E08093A10061
:100730000E94C801882371F0D093A000C0939F004D
:10074000F0929E00E0929D00DF91CF910F91FF907B
:10075000EF900895F092A000E0929F00D0939E0049
:10076000C0939D00F1CF0E94F701882309F479C05E
:100770008091A100823009F459C0833009F46BC024
:10078000813009F06EC08091A200811103C01092E7
:10079000A10008958091A3009091A400892B41F1BC
:1007A00040919F005091A00070E060E021E08091B6
:1007B0005801909159010E94910540919D005091DE
:1007C0009E0070E060E021E080915A0190915B0111
:1007D0000E9491054091A3005091A40070E060E058
:1007E00089E990E00E945A1182E08093A100089567
:1007F0008091A5009091A600892B99F180915801D4
:10080000909159010E94AA0780915A0190915B0131
:100810000E94AA074091A5005091A60070E060E0F8
:1008200089E990E00E945A1183E0DFCF89E990E0E6
:100830000E947411811115C08091A5009091A600AD
:10084000892BE1F681E08093A1008091A200815084
:100850008093A20006C089E990E00E947411882369
:1008600089F308951092A1001092A200E3EAF0E04B
:10087000118210821382128208958091A10008953E
:10088000E3EAF0E011821082138212821092A20039
:100890001092A1000895CF93DF9300D0CDB7DEB7BB
:1008A0008CE089838093A7000E9406028A832AE055
:1008B00040E062E0CE0101960E94F80E8150823045
:1008C00040F41092A70081E00F900F90DF91CF913C
:1008D000089580E0F9CFCF93DF9300D0CDB7DEB796
:1008E0008AE089830E9406028A8389818093A70017
:1008F0002BE040E062E0CE0101960E94F80E8150AC
:10090000823040F41092A70081E00F900F90DF91A9
:10091000CF91089580E0F9CFCF93DF9300D0CDB78A
:10092000DEB78DE089830E9406028A8389818093E5
:10093000A7002BE040E062E0CE0101960E94F80E95
:100940009FEF980F81E0923008F080E00F900F90B9
:10095000DF91CF9108951092AC0008950E94F701A5
:10096000811103C01092AC000BC00E94EB0E8823D3
:10097000C9F38091AC008130A1F018F0823091F77A
:1009800008950E944B048823D9F348EC50E060E0BE
:1009900070E088EA90E00E945A1181E08093AC00F8
:1009A000089588EA90E00E9474118823D9F208958E
:1009B0001092AC00089582E08093AC0008951092EC
:1009C000B00081EB90E09093AE008093AD00A09AD0
:1009D000A19AA29AA39AA49AA59AA69AA79A0895C8
:1009E0009F92AF92BF92CF92DF92EF92FF920F93BE
:1009F0001F93CF93DF93C091B000C23078F0D0E066
:100A0000C0E0CE01DF91CF911F910F91FF90EF9049
:100A1000DF90CF90BF90AF909F900895042F162F36
:100A2000E92E982ECC2ED12C86E0F82ECF9DE00119
:100A30001124CF54DF4F862F90E00E94DE12FC9CE1
:100A40005001FD9CB00C11249B838A83892BB9F241
:100A5000FFB6F894412F60E08A819B810E941B12AF
:100A60009882E982F501EA54FF4F2081207E812F90
:100A70008F71282B00FB25F92083A92DBE2D20E0A6
:100A8000211307C08091B0008F5F8093B000FFBE3C
:100A9000B8CF8D919C911197009761F03FB7F89472
:100AA00087FD1DC0482F4150550BFA018081892BCD
:100AB00080833FBF8D919D91009779F03FB7F89467
:100AC000AC0140785527FC01013099F4452B69F4BD
:100AD000FF278081892B80833FBF2F5FD1CFFC010F
:100AE000EF77FF27F1603197E1CFEF77FF27F160D4
:100AF000F0CF023051F4452B21F4FF278081892764
:100B0000EACFEF77FF27F160F9CF452B31F4FF27CC
:100B10004081892F80958423DECFEF77FF27F16016
:100B2000F7CFBF92CF92DF92EF92FF920F931F9376
:100B3000CF93DF93CDB7DEB764970FB6F894DEBFDF
:100B40000FBECDBF7C01122F233008F010E0CE0184
:100B50000B960E9424129AE0981BABE0B0E0AC0F19
:100B6000BD1FA80FB11D9E012F5F3F4F6901822F4E
:100B70008C19891790F1F70185818F71082F9817CB
:100B800008F4092F113099F5801B990B95958795DD
:100B9000182FBFB6F894F70145814F7160E082814C
:100BA00093810E941B12F70182819381402FB6012D
:100BB000810F911D0E940F12BFBE64960FB6F8946C
:100BC000DEBF0FBECDBFDF91CF911F910F91FF9080
:100BD000EF90DF90CF90BF900895ED91E052FF0B22
:100BE000EC5AFF4F8491F90181939F01C0CF1230DD
:100BF00019F4182F101BCDCF10E0CBCFAF92BF92BE
:100C0000CF92DF92EF92FF920F931F93CF93DF93D8
:100C10008C016B01B42E82E0841708F4B12CE6013C
:100C200009900020E9F72197CC19DD09AC2ECE01FF
:100C300099270E94DE127C014C2F60E00E941B125B
:100C40003C2DC701D6012A2F231B2A1588F1F80154
:100C500085818F71D82EA81608F4DC2EF1E0BF1222
:100C600031C08D19990B95958795C82FDFB7F894EA
:100C7000F80145814F7160E0828193810E941B12CF
:100C8000F801828193814D2DB7018C0F911D0E9437
:100C90000F12C7010E947A13DFBFDF91CF911F911E
:100CA0000F91FF90EF90DF90CF90BF90AF9008959D
:100CB000ED91E052FF0BEC5AFF4F2491FC01219380
:100CC000CF01C1CF92E0C82FCD19B91679F2C0E09B
:100CD000CDCFE091AD00F091AE0085818F7109F428
:100CE000D5C0248140815181222309F4D4C02150F0
:100CF00030E0220F331F240F351FF90180819181CD
:100D0000009761F02FB7F894FC0187FDC0C0FF2762
:100D10003081892F8095832380832FBFE091AD00A0
:100D2000F091AE00248130E0A281B381A20FB31F05
:100D30008C91220F331FA081B181A20FB31F4D915F
:100D40005C914115510561F06FB7F894DA0147FDE8
:100D5000D5C0BB274C91952F909594239C936FBF42
:100D6000882309F487C0958195FB442740F9982F83
:100D7000917094274FB7F894913009F0C3C0A89AA6
:100D80004FBF81FB992790F9458145FB442740F9E6
:100D900094274FB7F894913009F0B6C0A99A4FBF85
:100DA00082FB992790F9458145FB442740F9942718
:100DB0004FB7F894913009F0A9C0AA9A4FBF83FBAE
:100DC000992790F9458145FB442740F994274FB76F
:100DD000F894913009F09CC0AB9A4FBF84FB9927DF
:100DE00090F9458145FB442740F994274FB7F89483
:100DF000913009F08FC0AC9A4FBF9581982795FB31
:100E0000992790F94FB7F894913009F085C0AD9AC1
:100E10004FBF86FB992790F9458145FB442740F950
:100E200094274FB7F894913009F078C0AE9A4FBF2D
:100E3000881F8827881F958195FB992790F9892716
:100E40009FB7F894813009F06BC0AF9A9FBF808143
:100E50009181280F391FF90180819181009751F00C
:100E60002FB7F894FC0187FD5DC0FF278081892B97
:100E700080832FBFE091AD00F091AE0084818F5F41
:100E8000848395819F71891708F014820895EF7704
:100E9000FF27F1603DCF815090E0880F991F840FAC
:100EA000951FFC0180819181009761F02FB7F89424
:100EB000FC0187FD1FC0FF273081892F8095832388
:100EC00080832FBF8091AF0021E0280F2093AF00D7
:100ED000F6E08F9FC00111248F549F4F9093AE0076
:100EE0008093AD008091B000281708F417CF1092BE
:100EF000AF0014CFEF77FF27F160DECFAF77BB27CE
:100F0000B16028CFA8983CCFA99849CFAA9856CFCE
:100F1000AB9863CFAC9870CFAD987ACFAE9887CFAF
:100F2000AF9894CFEF77FF27F160A0CFCF93262F14
:100F30002052330BF901EC5AFF4F6491CFB7F8946C
:100F4000FC0145814F71828193810E941B12CFBFAA
:100F5000CF910895CF93CFB7F894FC0145814F719D
:100F600060E0828193810E941B12CFBFCF910895D0
:100F70001EBC1DBC1CBC89B78F7E89BF0895CF9352
:100F8000C82F0E94B8071092C60010921901109243
:100F9000180110921D01E091EB00F091EC003097E8
:100FA00039F087E0EA3DF80719F08C2FCF910994CA
:100FB000CF91089508958FB7F8942AED37E03093D4
:100FC000EC002093EB008FBF48E853E160E070E055
:100FD0008DEB90E00E945A1181E080931F011092E6
:100FE0001E0108958FB7F8942AED37E03093EC0096
:100FF0002093EB008FBF10921E0181E080931F01B0
:1010000048E853E160E070E08DEB90E00C945A11F9
:101010008FB7F8942AED37E03093EC002093EB0083
:101020008FBF1092170182E080931E0144E650E0CA
:1010300060E070E08DEB90E00C945A112BE02EBD37
:101040001FBC9C0150E040E060E472E48FE090E05F
:101050000E9494122F5F3F4F50E040E086E0220F45
:10106000331F441F551F8A95D1F760E070EC88EA62
:1010700090E00E9494123BBD2ABD89B7806189BF70
:1010800008959FB7F8942AED37E03093EC00209351
:10109000EB009FBF813021F483E080932401089509
:1010A0008230D1F384E0F9CF9FB7F8942AED37E08E
:1010B0003093EC002093EB009FBF8130B9F4909106
:1010C0001F019F5F90931F0110921E0190911F01BD
:1010D00097FF1BC080931F0180931E0148E853E1D6
:1010E00060E070E08DEB90E00C945A11823071F466
:1010F00048E853E160E070E08DEB90E00E945A1107
:1011000081E080931F0110921E0108958111FDCF8F
:1011100048E853E160E070E08DEB90E00E945A11E6
:10112000F2CF9FB7F8942AED37E03093EC0020938C
:10113000EB009FBF813061F444E650E060E070E076
:101140008DEB90E00E945A1184E080931E01089577
:10115000823061F41092170180931E0144EF51E038
:1011600060E070E08DEB90E00C945A1184E0F4CFD5
:10117000CF92EF920F931F93CF93DF939091CB0079
:1011800060E174E0911114C0909117019923C1F0AE
:101190002091170130E0A4E3B0E00E94BC126E572A
:1011A0007F4F8F4F9F4F43E0660F771F4A95E1F7C0
:1011B000CB01DF91CF911F910F91EF90CF900895C8
:1011C00010911A0100911801C12FD0E0882301F17C
:1011D000CE010196959587958032910514F480E2B1
:1011E00090E0815080931A01C0901A010E944F1420
:1011F0002FE1E22E0FEF1FEF2FEF3FE740E00E94BD
:10120000C01194E3899FB0011124605F7B4FD0CF60
:10121000802F0E94F4112196282F2C9FC0012D9F12
:10122000900D1124811594403CF4802F0E94F411FC
:10123000189F800D1124D5CF8FEFD4CFCF93DF939C
:1012400010921D0191E09093C100CDEED0E080633B
:1012500088838091170189836A8344E060ED70E0A0
:1012600080EF90E00E940F1289E08F8368E0CE014A
:101270000E946912888783E08093C60088E092E02C
:10128000DF91CF910C941E088091CD008F708B3030
:1012900009F456C058F48A3079F18091CB00882344
:1012A00009F44DC06091CE008AE024C08C3009F46E
:1012B00062C08D3091F78091CB00811140C082E0F7
:1012C0000E94BF0748E853E160E070E08DEB90E0DA
:1012D0000E945A1183E080931E011092170144E08E
:1012E00067EC70E085ED90E00E940012882341F0E9
:1012F00060E08BE00C941E098091CB00811107C047
:1013000084E08093C60080E29BEC0C941E0883E08E
:1013100080931E0144E060ED70E083E191E00E9463
:101320000F1248E853E160E070E08DEB90E00E941E
:101330005A118091CF006091CE008F3FD1F6089571
:101340008091CB008111FBCF44E067EC70E086ED2B
:1013500090E00E940012882399F282E00E94BF0769
:1013600010921E018091D500809317018091170182
:1013700080931F01D6CF82E00E94BF078091CB00EF
:10138000811126C08FB7F8942AED37E03093EC0036
:101390002093EB008FBF8091CF008F3F69F41092B4
:1013A000170183E080931E0148E853E160E070E09C
:1013B0008DEB90E00C945A1182E080931E0148EE70
:1013C00053E060E070E08DEB90E00E945A1198CFFE
:1013D00048E853E160E070E08DEB90E00E945A1124
:1013E00044E060ED70E083E191E00E940F1282E042
:1013F00080931E0160E08BE00E941E0981E08093D3
:101400001F01089580911901813051F482E0809389
:10141000C60081E00E94B808009771F00C941E0885
:1014200080911901823031F485E08093C60085E017
:1014300090E0F4CF1092C60008958091CB00811106
:101440000BC080911701811107C084E08093C60012
:1014500080E29BEC0C941E082091CF008091170134
:10146000281771F12F3F61F18091C40090912701FD
:101470009813EBCF8091D400895080933A018091EA
:101480003A01853140F440913A0165ED70E086E221
:1014900091E00E940F128091CE0080933C018091D8
:1014A000CF0080933B018091CD008F708A3021F472
:1014B00081E080932501C9CF8B3039F682E0F9CFE6
:1014C0008091CD008F708A50990B029748F02F3F82
:1014D00029F06091CE008AE00C941E090C94020A57
:1014E00080912501882319F02F3F99F70895809165
:1014F000D400895080933A0180913A01853140F4BB
:1015000040913A0165ED70E086E291E00E940F1291
:101510006091CE0060933C019091CF0090933B018D
:101520008091CD008F708B3039F482E0809325015B
:101530009F3FA1F28BE0D0CF8A30D1F781E0F6CF88
:101540001F920F920FB60F9211240F900FBE0F90A3
:101550001F9018951F920F920FB60F9211242F9380
:101560003F934F935F936F937F938F939F93AF932B
:10157000BF93EF93FF930E94B80781E08093C6006A
:10158000FF91EF91BF91AF919F918F917F916F915B
:101590005F914F913F912F910F900FBE0F901F9031
:1015A00018951F920F920FB60F9211242F933F930D
:1015B0004F935F936F937F938F939F93AF93BF935B
:1015C000EF93FF930E94B8070E94AE119091EA003A
:1015D0009D3108F07CC0E091EA00F0E0E353FF4F5A
:1015E00080839091CC00913009F452C030F0923059
:1015F00091F182E08093CC002EC0A091EA00E091AE
:101600001D01B0E0A353BF4FF0E0EA50FF4F9C91A3
:101610008081981741F080911B018F5F80931B019F
:1016200010921D01E6CF80911D018F5F80931D01F7
:1016300090911D0180911C01981748F4E0911D01C3
:10164000F0E0EA50FF4F80810E94AC1104C010927C
:101650001D0110921B018091EA008F5F8093EA00C8
:1016600088E092E00E941E0881E08093C600FF910E
:10167000EF91BF91AF919F918F917F916F915F910A
:101680004F913F912F910F900FBE0F901F90189583
:10169000E0911D01F0E0E351FF4F9081891719F0AF
:1016A0001092C100BDCF80911D018F5F80931D01FD
:1016B00080911D01893030F4E0911D01F0E0E3518B
:1016C000FF4FC1CF1092C10010921D01C4CF1092E4
:1016D000EA00C6CF8093CB004093C7005093C80068
:1016E0006093C9007093CA008091CB00882339F0C1
:1016F00081E080931E01CB01BA010C949E141092DC
:101700001E01F9CF8091190181110EC08091C10095
:1017100081110AC08091C600811106C06FEF8DE073
:101720000E941E0981E0089580E008951F920F92A3
:101730000FB60F9211242F933F934F935F936F93A4
:101740007F938F939F93AF93BF93CF93EF93FF9329
:101750000E94B8078091C600823009F404C148F4A1
:10176000882309F447C08130F9F081E08093C600F6
:1017700041C0843009F485C008F400C18530A9F760
:1017800080911801853008F005C1809118018F5FA4
:101790008093180182E08093C60080E00E94B80820
:1017A000009709F08AC026C010921D011092C60051
:1017B0008091CC00813081F138F0823009F444C04E
:1017C00082E08093CC004AC01092EA008091CF0062
:1017D0008F3F21F481E00E94BF070CC085E0809319
:1017E000C60085E090E00E941E0882E08093CC0055
:1017F00080931901FF91EF91CF91BF91AF919F918C
:101800008F917F916F915F914F913F912F910F90A9
:101810000FBE0F901F9018951092EA001092C10011
:101820001092EA000E94020A8091C500882311F3F9
:101830001092C500E091C200F091C3003097D1F240
:101840008DEC90E00995D6CF8091EA00893020F0A8
:101850008091EA008E3128F01092C1001092EA00C7
:1018600010C01092EA006091D400E62FF0E0E4533B
:10187000FF4FC08161508DEC90E00E946912C81743
:1018800019F00E94020AB6CF8091CD00982F929550
:101890009F70913081F1A0F0923091F1933089F7EF
:1018A0009091CF0020911701921779F19F3F69F134
:1018B00084E08093C60080E29BEC0E941E089ACFD1
:1018C0008A3009F097CF8091CF008F3F09F092CFF7
:1018D0008091CE0081118ECF8091D400803109F0AB
:1018E00089CF81E08093C50010921E016FEF8BE0DD
:1018F0000E941E097FCF8F7090E00E9444097ACF2A
:101900008F7090E00E941D0A75CF8F708B3061F44C
:1019100044E067EC70E080ED90E00E9400128823C4
:1019200039F21092C60056CF8A30B1F444E067EC29
:1019300070E080ED90E00E940012882309F4B8CF97
:1019400010921D0185E08093C60080E698E10E9418
:101950001E0810921B014ECF8C3009F4A9CF8D3098
:1019600009F048CF8ECF10921D011092EA008091AD
:10197000F6000E94AC111092CC003CCF10921D01D9
:101980001092EA0081E08093CC008091ED000E94EB
:10199000AC1130CF81E08093C600109219011092F3
:1019A00018018091EB009091EC00009709F422CF90
:1019B0008A5D974009F41ECF0E94820BE091EB00F4
:1019C000F091EC0080E0099515CFCF93C1E0C09372
:1019D000CB001092C7001092C8001092C90010925C
:1019E000CA001092C6001092C1008FE180931A01C4
:1019F00010921B0110921C011092190110921701F4
:101A000010921D014DE160E086EF90E00E941B12F4
:101A100044E160E086E291E00E941B124DE160E04B
:101A20008DEC90E00E941B1249E060E08DEE90E0AA
:101A30000E941B121092EA0082E08093CC00109268
:101A40001E01C0931F0110922401109225011092D3
:101A50002101109220011092230110922201109274
:101A6000C5001092C3001092C2001092C4008AED0B
:101A700097E09093EC008093EB0085B78D7F85BF56
:101A800085B7816085BF8BB780648BBFCF91089588
:101A9000EF92FF920F931F93CF93DF939091C1002A
:101AA000911154C090911901911150C09091C600AC
:101AB00091114CC0253108F047C0C22F7B01DFB720
:101AC000F8941093EC000093EB0091E090931901CF
:101AD00092E09093C60010921D011092180180931D
:101AE000F600809117018093F7004093F80044E0DE
:101AF00067EC70E089EF90E00E940F12CC2349F070
:101B0000E114F10431F04C2FB7018EEF90E00E9408
:101B10000F1289E08C0F80931C0180911C0180932F
:101B2000FD0068E06C0F86EF90E00E946912EC2FD8
:101B3000F0E0EA50FF4F808781E00E94B8080097EC
:101B400011F00E941E08DFBF81E001C080E0DF913C
:101B5000CF911F910F91FF90EF9008950F931F93D6
:101B6000CF93DF9300D000D01F92CDB7DEB7809126
:101B7000C4008823B1F00E94B0118823E1F00E94D4
:101B8000AE111092C1001092EA0010921D0144E6BD
:101B900050E060E070E08DEB90E00E945A110E94EE
:101BA000020A0F900F900F900F900F90DF91CF913E
:101BB0001F910F9108958091C7009091C800A09146
:101BC000C900B091CA00892B8A2B8B2B19F1809107
:101BD000CB00882309F451C080911E01813041F06F
:101BE000C8F0823039F18330A9F110921E0112C081
:101BF00002EF17E020E04FEF70E060E08CE10E9420
:101C0000480D811110921E018DEB90E00E9474111D
:101C1000882359F38091C7009091C800A091C90012
:101C2000B091CA00892B8A2B8B2B09F0A2C010928D
:101C30002501B7CF44E063E171E0CE0101960E9437
:101C40000F120BED17E024E040E0BE016F5F7F4F05
:101C50008DE1D5CF80911F01898344E063E171E07C
:101C6000CE0102960E940F1204E518E025E040E044
:101C7000BE016F5F7F4F8BE1C2CF80911701811151
:101C8000B4CF80911E01823009F4BECF68F588235D
:101C900009F43FC0813009F0A8CF8091CB0089833F
:101CA00008E018E021E040E0BE016F5F7F4F8CE16B
:101CB0000E94480D882359F048E853E160E070E045
:101CC0008DEB90E00E945A1182E080931E018DEB13
:101CD00090E00E94741181119DCF1092C10010926A
:101CE00019011092C60081CF8330F9F0843009F0D9
:101CF0007CCF8DEB90E00E94741181118BCF48E86E
:101D000053E160E070E08DEB90E00E945A1183E0B7
:101D100009C048E853E160E070E08DEB90E00E947C
:101D20005A1181E080931E0175CF01E918E020E08F
:101D300040E070E060E08AE10E94480D882319F0DD
:101D400084E080931E018DEB90E00E94741181115C
:101D500061CF1092C100109219011092C60044EF99
:101D600051E060E070E08DEB90E00E945A1184E059
:101D7000D9CF80911701811105C08091CB008823B4
:101D800009F455CF8091C10081110BCF80912501BD
:101D9000813051F008F405CF823009F048CFE0914E
:101DA0002201F091230104C0E0912001F091210172
:101DB000309709F43CCF40913A0160913C01809109
:101DC0003B0126E231E00995882309F4EACE2FCFC2
:101DD00080911F010895809117010895909321012A
:101DE0008093200108959093230180932201089508
:101DF000CF92DF92EF92FF920F931F93C090C70094
:101E0000D090C800E090C900F090CA00CD28CE283C
:101E1000CF2819F4109224014AC0309117013111D2
:101E200004C03091CB003323A9F3322F262FBC01FD
:101E3000909124019230E9F138F4992351F09130D6
:101E4000A9F01092240110C09330E1F1943011F305
:101E5000F8CF48E853E160E070E08DEB90E00E943D
:101E60005A1181E08093240180E02FC001E418E042
:101E7000832F80620E94480D882359F048E853E17F
:101E800060E070E08DEB90E00E945A1182E0809358
:101E900024018DEB90E00E9474118111E5CF109226
:101EA00024011092C100109219011092C60082E024
:101EB0000CC08DEB90E00E9474118111D5CF10926F
:101EC0002401EDCF1092240181E01F910F91FF902A
:101ED000EF90DF90CF9008959093C3008093C2005D
:101EE00008958093C40008951092690110926801CA
:101EF000109271011092700110926A0110926701A4
:101F0000109266014AE06FEF8DE391E00C941B1292
:101F100080917101882309F477C0E19975C08CE63E
:101F200091E00E947411811109C010927101109208
:101F300070011092690110926801089580917101F9
:101F4000813009F041C09091700180916B01981728
:101F500000F58FB7F89420916801309169013FBB7B
:101F60002EBBE09AE09170019DB3F0E0E35CFE4F80
:101F700090838FBF809170018F5F809370018091FB
:101F800068019091690101969093690180936801BD
:101F900008951092700180916A01882339F010929F
:101FA00069011092680110927101089520916B01EE
:101FB0008091680190916901821B91099093690158
:101FC0008093680182E01EC080917101823011F51A
:101FD0009091700180916B019817B8F4E0917001B5
:101FE000A0917001F0E0E35CFE4F8091660190915A
:101FF0006701A80FB92FB11D90818C91981709F432
:10200000B9CF83E08093710108951092710110920D
:1020100070010895809171018330B1F72FB7F89462
:102020008091680190916901AC014F5F5F4F5093BF
:102030006901409368019FBB8EBB809166019091BE
:102040006701E091700131E03E0F30937001E80FBD
:10205000F92FF11D80818DBBE29AE19A2FBFB2CF9B
:102060009C01260F311D2F3F3140C8F46B30B8F46E
:1020700090936901809368015093670140936601D2
:1020800060936B0110926A0181E08093710148ECCA
:1020900050E060E070E08CE691E00C945A110895F5
:1020A0009C01260F311D2F3F3140D8F46B30C8F40E
:1020B00090936901809368018DE391E090936701AB
:1020C0008093660160936B0181E080936A01809345
:1020D000710148EC50E060E070E08CE691E00C9417
:1020E0005A1108959091710181E0911101C080E031
:1020F000089520916B01222331F040916B016DE333
:1021000071E00C940F1208951F920F920FB60F9268
:1021100011242F933F934F935F936F937F938F93EC
:102120009F93AF93BF93EF93FF9380915001909152
:102130005101A0915201B09153010196A11DB11D11
:102140008093500190935101A0935201B093530199
:1021500080914B01815E80934B0180914B018D37C3
:10216000C0F080914B018D5780934B0180915001BD
:1021700090915101A0915201B09153010196A11D7E
:10218000B11D8093500190935101A0935201B093DF
:1021900053018091490190914A018F38914088F50F
:1021A0008091490190914A01019690934A01809350
:1021B00049010E9469060E94840080915401909117
:1021C0005501A0915601B09157010196A11DB11D75
:1021D0008093540190935501A0935601B0935701F9
:1021E000FF91EF91BF91AF919F918F917F916F91EF
:1021F0005F914F913F912F910F900FBE0F901F90C5
:10220000189510924A01109249018091470191E07E
:10221000892780934701909348018091470181115C
:10222000C8CF80914C0190914D01A0914E01B09189
:102230004F010196A11DB11D80934C0190934D015A
:10224000A0934E01B0934F01B4CF89B7826089BF8C
:1022500078940895109254011092550110925601ED
:102260001092570110925001109251011092520198
:10227000109253011092470181E08093480110921F
:102280004C0110924D0110924E0110924F0110928C
:102290004B0110924A011092490108952FB7F8940A
:1022A00060915001709151018091520190915301C0
:1022B0002FBF0895CF92DF92EF92FF92CF93DF93DB
:1022C000EC016A017B010E944E11C60ED71EE81E6A
:1022D000F91EC882D982EA82FB82DF91CF91FF90FA
:1022E000EF90DF90CF900895CF92DF92EF92FF9220
:1022F0000F931F93FC01C080D180E280F380F7FE32
:1023000008C080E01F910F91FF90EF90DF90CF9079
:1023100008950E944E119701860106271727282746
:10232000392737FD05C06C157D058E059F0548F7DB
:1023300081E0E8CF83B78B7F83BF83B7826083BFA1
:1023400083B7816083BF83B7886083BF83B78F7B88
:1023500083BF87ED8CBF08958CB908958CB1089523
:102360008BB1887119F01BB881E0089580E0089561
:1023700010BC83E289B988ED8AB986E880BD0895EA
:102380004F925F926F927F928F929F92AF92BF9285
:10239000CF92EF920F931F933901842E912CB12C81
:1023A000A12C9B01AC01281939094A095B098C2D24
:1023B0008E19990BDC010E94D612A30198012819ED
:1023C00039094A095B090E9494128E2D820F1F91D0
:1023D0000F91EF90CF90BF90AF909F908F907F9094
:1023E0006F905F904F900895282F882339F090E0E8
:1023F00081E0880F9F5F2913FCCF089581E0089545
:10240000282FDB01FC018E2F821B841710F081E046
:10241000089591918D919817B1F380E00895362F2A
:10242000FB012E2F231B241708F008952191DC01B6
:102430002D93CD01F6CF282FFC018E2F821B841700
:1024400008F008956193F9CF8F929F92AF92BF9257
:10245000CF92DF92EF92FF920F931F93CF93DF9370
:102460008C016A017B014AE060E30E941B12C114E7
:10247000D104E104F10459F1E8010AE010E08AE036
:10248000882E912CA12CB12CC114D104E104F104AB
:10249000E1F0C701B601A50194010E949412605DAC
:1024A000698769017A01015021970111EDCF812FD0
:1024B000DF91CF911F910F91FF90EF90DF90CF9020
:1024C000BF90AF909F908F9008951F5FECCF19E061
:1024D000EECF282FFC0180E031E99E2F921B96174A
:1024E00008F008959191892798E080FD83278695CB
:1024F0009150D9F7F2CF0E9479000E949A110E9460
:102500002A110E94B8110E94740F0E94E50C0E94CB
:10251000DF040E947A000E9425110E94AE0D0E94E5
:10252000880F0E948500F9CFA1E21A2EAA1BBB1BBF
:10253000FD010DC0AA1FBB1FEE1FFF1FA217B3078F
:10254000E407F50720F0A21BB30BE40BF50B661FA5
:10255000771F881F991F1A9469F760957095809569
:1025600090959B01AC01BD01CF010895EE0FFF1FB7
:102570000590F491E02D0994A29FB001B39FC00192
:10258000A39F700D811D1124911DB29F700D811D9F
:102590001124911D08950E94BC12A59F900DB49F17
:1025A000900DA49F800D911D11240895B7FF0C94E8
:1025B000CB120E94CB12821B930B08950F931F9393
:1025C000CF93DF938230910510F482E090E0E091A8
:1025D0007401F091750130E020E0B0E0A0E03097A8
:1025E00099F42115310509F44AC0281B390B243010
:1025F0003105D8F58A819B816115710589F1FB014F
:1026000093838283FE0111C0408151810281138135
:1026100048175907E0F04817590799F4109761F0E7
:1026200012960C93129713961C933296CF01DF915A
:10263000CF911F910F91089500937401109375012C
:10264000F4CF2115310551F04217530738F0A90195
:10265000DB019A01BD01DF01F801C1CFEF01F9CF24
:102660009093750180937401CDCFFE01E20FF31FAB
:10267000819391932250310939832883D7CF2091B8
:10268000720130917301232B41F42091620030914B
:1026900063003093730120937201209160003091A8
:1026A00061002115310541F42DB73EB7409164001A
:1026B00050916500241B350BE0917201F09173017C
:1026C000E217F307A0F42E1B3F0B2817390778F009
:1026D000AC014E5F5F4F2417350748F04E0F5F1F68
:1026E0005093730140937201819391939FCFF0E0D7
:1026F000E0E09CCFCF93DF930097E9F0FC013297A5
:1027000013821282A0917401B0917501ED0130E045
:1027100020E01097A1F420813181820F931F209136
:102720007201309173012817390709F061C0F093E5
:102730007301E0937201DF91CF910895EA01CE1702
:10274000DF07E8F54A815B819E0141155105B1F72C
:10275000E901FB83EA8349915991C40FD51FEC1716
:10276000FD0761F4808191810296840F951FE90134
:1027700099838883828193819B838A83F0E0E0E060
:1027800012968D919C9113970097B9F52D913C91DC
:102790001197CD010296820F931F20917201309103
:1027A00073012817390739F6309751F510927501E2
:1027B00010927401B0937301A0937201BCCFD383C4
:1027C000C28340815181840F951FC817D90761F4D6
:1027D0004E5F5F4F88819981480F591F5183408315
:1027E0008A819B81938382832115310509F0B0CFC3
:1027F000F0937501E09374019ECFFD01DC01C0CF21
:1028000013821282D7CF8F929F92AF92BF92CF92B4
:10281000DF92EF92FF92CF93DF93EC016881798191
:102820008A819B81611571058105910521F464E21E
:1028300079ED8BE597E02DE133EF41E050E00E9428
:10284000A71449015A019B01AC01A7EAB1E40E9417
:10285000CB126B017C01ACEEB4EFA50194010E9498
:10286000D912C60ED71EE81EF91EF7FE06C081E07B
:10287000C81AD108E10880E8F80AC882D982EA8239
:10288000FB82C701B6019F77DF91CF91FF90EF9058
:10289000DF90CF90BF90AF909F908F9008958F92D0
:1028A0009F92AF92BF92CF92DF92EF92FF92609190
:1028B00066007091670080916800909169006115D1
:1028C00071058105910521F464E279ED8BE597E0CE
:1028D0002DE133EF41E050E00E94A71449015A0175
:1028E0009B01AC01A7EAB1E40E94CB126B017C0111
:1028F000ACEEB4EFA50194010E94D912C60ED71E0A
:10290000E81EF91EF7FE06C081E0C81AD108E108EA
:1029100080E8F80AC0926600D0926700E0926800F2
:10292000F0926900C701B6019F77FF90EF90DF90AA
:10293000CF90BF90AF909F908F9008956093660066
:102940007093670080936800909369000895052E46
:1029500097FB1EF400940E94BE1457FD07D00E94FE
:10296000941207FC03D04EF40C94BE14509540957D
:10297000309521953F4F4F4F5F4F0895909580952B
:10298000709561957F4F8F4F9F4F0895F894FFCFBB
:10299000000076012000010000006F4646003B0861
:0C29A0003B103B2038013B013B023B0494
:00000001FF
